:020000040800F2
:1000000000300020411B0008E1030008E303000862
:10001000E5030008E7030008E9030008000000000A
:10002000000000000000000000000000EB030008DA
:10003000ED03000800000000EF030008F1030008D2
:10004000911B0008911B0008911B0008911B0008E0
:10005000911B0008911B0008911B0008911B0008D0
:10006000911B0008350400085D040008911B00087E
:10007000911B0008911B0008911B0008911B0008B0
:10008000911B0008911B0008911B0008911B0008A0
:10009000911B0008911B0008911B000881040008B7
:1000A000911B0008911B0008911B0008911B000880
:1000B000911B0008911B000800000000911B000824
:1000C000911B00080000000000000000911B0008C8
:1000D00000000000911B0008911B0008911B000804
:1000E000911B0008911B00080000000000000000A8
:1000F0000000000000000000000000000000000000
:1001000000000000000000000000000000000000EF
:100110000000000000000000911B0008911B000877
:1001200000000000000000000000000000000000CF
:1001300000000000000000000000000000000000BF
:10014000911B0008911B0008000000000000000047
:10015000000000000000000000000000000000009F
:10016000000000000000000000000000000000008F
:10017000000000000000000000000000000000007F
:0801800000000000911B0008C3
:100188000348044B834202D0034B03B1184770471E
:100198001C0000201C000020000000000548064943
:1001A800091A891001EBD171491002D0034B03B130
:1001B800184770471C0000201C00002000000000A9
:1001C80010B5064C237843B9FFF7DAFF044B13B197
:1001D8000448AFF300800123237010BD1C000020E9
:1001E80000000000EC1B000808B5054B1BB10549D1
:1001F8000548AFF30080BDE80840FFF7CFBF00BF58
:100208000000000020000020EC1B000830B597B06B
:10021800202200210DA801F0DDFC1422002101A8F4
:1002280001F0D8FC18220DEB0200002101F0D2FCED
:10023800012510230224CDE910530CA84FF4E01334
:100248000C941394159300F0BBFE0F23CDE90134F1
:100258002946002401A8CDE90344059401F058F982
:1002680006A80695089401F02BFA17B030BD0000D7
:1002780000B58DB000F080FEFFF7C8FF1422002102
:100288000DEB020001F0A6FC4B4B4C4D5A6942F4B1
:1002980000325A615B6903F40033019300224FF482
:1002A80000414FF09040019B01F078FB444B7822CD
:1002B800012405A94FF09040CDE90523079401F0EA
:1002C800ADFA4FF40043CDE9053405A900244FF0F9
:1002D8009040CDE9074401F0A1FA224621460920C1
:1002E80001F084FB092001F0B5FB224621460A20D3
:1002F80001F07CFB0A2001F0ADFB224621461720C5
:1003080001F074FB172001F0A5FB2E482E498461EB
:1003180010238483C0E90013C0E90244C0E90444FF
:1003280000F078F91C22214605A8CDE9024404947E
:1003380001F050FC4FF08043C5E90034234BAC601A
:100348002846C5E90334AC6100F02AFA02A9284618
:100358000294049400F042FC4DF2F0236020CDE9B1
:100368000503042205A928460794099400F0AEFB6A
:10037800082205A9284600F0A9FB284600F0F4F851
:100388001348DFF850C004614FF41643C0E900C3B6
:100398000C23C0E90534C0E90244C0E907444462BB
:1003A80000F094FD0421284600F02EFB0821284681
:1003B80000F02AFBFEE700BF00100240D00000203A
:1003C80000003110380000200064004080FC0A0062
:1003D80060000020003801407047FEE7FEE7FEE7B6
:1003E800FEE770477047704708B500F0E3FD4FF42B
:1003F8007A73B0FBF3F202FB130018B901F080FB2B
:1004080001F08CFB00F0D6FD4FF4FA73B0FBF3F269
:1004180002FB130028B94FF400414FF0904001F05F
:10042800C2FABDE8084000F0B9BD000008B50821CF
:100438004FF0904001F0ACFA054BC0F10100586054
:1004480001F05EFB0820BDE8084001F0B1BA00BF2A
:100458000C00002008B510214FF0904001F098FAE8
:10046800044B0138586001F04BFB1020BDE80840F0
:1004780001F09EBA0C00002010B520214FF09040EA
:1004880001F086FA094CC0F10100606040214FF08C
:10049800904001F07DFA01386060202001F088FA70
:1004A8004020BDE8104001F083BA00BF14000020CE
:1004B8000A4B9A6942F001029A619A6982B002F085
:1004C80001020092009ADA6942F08052DA61DB692F
:1004D80003F080530193019B02B070470010024063
:1004E80010B5044688B01422002103A801F072FB5D
:1004F8002268134B9A4221D103F5D6330321DA69D6
:1005080042F00072DA61DA6902F000720192019A2F
:100518005A6942F400325A615B6903F4003302936A
:10052800029B4FF4C0520223CDE903230923CDE9EE
:1005380006134FF0904003A901F070F908B010BD00
:10054800006400400368B3F1804F82B00AD103F51C
:100558000433DA6942F00102DA61DB6903F001036E
:100568000193019B02B0704710B5044686B014226F
:10057800002101A801F02EFB2368B3F1804F15D1AB
:1005880003F5043301A95A6942F400325A615B69E0
:1005980003F400330093009B06220223CDE90123D4
:1005A8004FF090400123059301F038F906B010BDD3
:1005B80010B5044688B01422002103A801F00AFBF4
:1005C8002268134B9A4221D103F5584303219A69B3
:1005D80042F480429A619A6902F480420192019A37
:1005E8005A6942F400325A615B6903F4003302939A
:1005F800029B4FF4C0620223CDE903230723CDE910
:1006080006134FF0904003A901F008F908B010BD97
:100618000038014038B5044600286ED090F82030E4
:100628000BB9FFF75DFF2268136823F0020313601C
:1006380000F0C0FC054623685A68910751D41A682F
:1006480042F001021A6000F0B5FC054623685A68BA
:10065800D20754D5227E012A1A680CBF42F08002C4
:1006680022F080021A60627E012A1A680CBF42F0EA
:10067800400222F040021A60A27E012A1A680CBFCA
:1006880042F0200222F020021A60E27E012A1A6853
:100698000CBF22F0100242F010021A60227F012AD9
:1006A8001A680CBF42F0080222F008021A60627F42
:1006B800012A1A680CBF42F0040222F004021A60F0
:1006C800D4E902210A4321690A4361690A4361683E
:1006D80001390A43DA6100200123606284F820307E
:1006E80038BD00F067FC401B0A28A4D9636A43F4AC
:1006F80000336362052384F820300120F0E700F01E
:1007080059FC401B0A28A1D9F0E70000214A0368D8
:10071800904210B505D0B0F1804F02D01E4CA042D7
:100728000CD14C6823F07003904243EA040310D0C4
:10073800B0F1804F0DD0184A90420AD0174A904223
:1007480007D002F58062904203D002F580629042A1
:1007580003D1CA6823F4407313434A6923F0800322
:10076800134303608B68C3620B688362094B98422A
:100778000BD003F5A053984207D003F58063984245
:1007880003D003F58063984201D10B690363012309
:10079800436110BD002C01400004004000400140AE
:1007A80010B50446A0B190F83D3003F0FF021BB924
:1007B80080F83C20FFF7C6FE022384F83D3020680D
:1007C800211DFFF7A3FF012384F83D30002010BD51
:1007D8000120FCE7036A23F001030362036A70B592
:1007E800446882690D6822F4803222F073022A4339
:1007F8008D6823F002032B43174DA8420BD005F553
:10080800A055A84207D005F58065A84203D005F594
:100818008065A8421AD1CD6823F008032B430E4DFA
:10082800A84223F004030BD005F5A055A84207D031
:1008380005F58065A84203D005F58065A84205D175
:1008480024F44075D1E9054634432C434460826161
:100858004A684263036270BD002C0140036A23F0BA
:1008680010030362036A426870B584690D6824F056
:10087800807424F4E64444EA05248D6823F02003B8
:1008880043EA0513104DA8420ED1CD6823F080032A
:1008980043EA051323F04003D1E9055622F44062E8
:1008A800354342EA850209E0084DA842F4D0084DD4
:1008B800A842F1D005F58065A842EDD042604A68AB
:1008C80084618263036270BD002C014000400140D6
:1008D80000440140036A23F480730362036A426898
:1008E80070B5C4690D6824F4803424F073042C4373
:1008F8008D6823F4007343EA0523114DA8420ED1F5
:10090800CD6823F4006343EA052323F48063D1E927
:10091800055622F44052354342EA051209E0094DD2
:10092800A842F4D0084DA842F1D005F58065A84248
:10093800EDD042604A68C461C263036270BD00BF03
:10094800002C01400040014000440140036A23F4A8
:1009580080530362026A30B54468C3690D6823F0A6
:10096800807323F4E64343EA05238D6822F400529A
:1009780042EA05320C4DA8420BD005F5A055A84215
:1009880007D005F58065A84203D005F58065A84223
:1009980004D14D6924F4804444EA85144460C36159
:1009A8004B680364026230BD002C0140036A10B535
:1009B80001248C4023EA04030362036A8A401A4331
:1009C800026210BD10B5044601220068FFF7EEFF71
:1009D80023680C4A93420BD002F5A052934207D0E9
:1009E80002F58062934203D002F58062934203D1FC
:1009F8005A6C42F400425A641A6842F001021A60C2
:100A0800002010BD002C0140FFF7DCBF036A23F46F
:100A180080330362026A30B54468436D0D6823F47D
:100A2800803323F070032B438D6822F4003242EAAE
:100A380005420D4DA8420BD005F5A055A84207D098
:100A480005F58065A84203D005F58065A84204D164
:100A58004D6924F4803444EA0524446043654B68B6
:100A68008365026230BD00BF002C0140036A23F495
:100A780080130362026A30B54468436D0D6823F041
:100A8800807323F4E04343EA05238D6822F40012BF
:100A980042EA05520C4DA8420BD005F5A055A842D4
:100AA80007D005F58065A84203D005F58065A84202
:100AB80004D14D6924F4802444EA852444604365C4
:100AC8004B68C365026230BD002C014038B590F810
:100AD8003C30012B04460D464FF0020010D0012394
:100AE800082A84F83C3084F83D0043D009D8FAB18C
:100AF800042A2ED00123002084F83D3084F83C00DD
:100B080038BD102A47D0142A56D00C2AF2D12068B2
:100B1800FFF71CFF23682969DA6942F40062DA6189
:100B2800DA6922F48062DA61DA6942EA012230E0A5
:100B38002068FFF74FFE236829699A6942F0080286
:100B48009A619A6922F004029A619A690A439A6141
:100B5800D0E72068FFF782FE236829699A6942F482
:100B680000629A619A6922F480629A619A6942EAFB
:100B78000122ECE72068FFF7ADFE23682969DA69EE
:100B880042F00802DA61DA6922F00402DA61DA690D
:100B98000A43DA61AEE72068FFF738FF236809697E
:100BA8005A6D42F008025A655A6D22F004025A65DD
:100BB8005A6D0A435A659DE72068FFF757FF236877
:100BC80009695A6D42F400625A655A6D22F48062CE
:100BD8005A655A6D42EA0122ECE7000090F83C3071
:100BE800012B30B518D002680C4D53689468AA429E
:100BF80002BF4D6823F470032B430D68896823F006
:100C080070032B4324F0800453600C43002394604A
:100C180080F83C30184630BD0220FCE7002C01402B
:100C280038B5C169036882681D68044600690243D3
:100C38006069024345480A43284002431A605A68DB
:100C4800E068256A22F4405202435A609868A26913
:100C580020F430602A4302439A603D4A934211D1FE
:100C68003C4B3D4A1B6B03F00303B1F5004FD35CCB
:100C78003BD1082B36D8DFE803F00F2124352D357A
:100C880035353000354A934203D002F580629342ED
:100C980057D1B1F5004F31D100F0E2FC61684A0844
:100CA80002EB4003B3FBF1F39BB2002023F00F02E9
:100CB8002168C3F342031343CB6038BD00F0E8FC5E
:100CC800ECE76068430803F5740303F51053B3FBBE
:100CD800F0F3E9E700F0EAFBE0E76068430803F5B2
:100CE8008033F4E701200023E0E7082B2CD8DFE865
:100CF80003F00511142B202B2B2B230000F0B0FC44
:100D0800D4E9002300EB5300B0FBF3F080B2D060CD
:100D18000020D2E700F0BCFCF2E76268530803F554
:100D2800F40303F59053B3FBF2F3094A9BB2D36083
:100D3800EEE700F0BBFBE3E76268530803F5004306
:100D4800F1E7B1F5004FCDD00120B6E7F369FFEF29
:100D58000038014000100240041C00080044004014
:100D6800436ADA0710B506D50168846A4A6822F42E
:100D7800003222434A609C0706D50168C46A4A6863
:100D880022F4803222434A60590706D50168046B71
:100D98004A6822F4802222434A601A0706D501686D
:100DA800446B4A6822F4004222434A60DC0606D5B6
:100DB8000168846B8A6822F4805222438A6099060B
:100DC80006D50168C46B8A6822F4005222438A60FF
:100DD8005A060FD50168046C4A6822F4801222432F
:100DE800B4F5801F4A6005D14A68446C22F4C002F9
:100DF80022434A601B0606D50268816C536823F4B7
:100E080000230B43536010BD2DE9F041069D0446B5
:100E18000F46164698462168CA6937EA02030CBF8E
:100E280001220022B24201D0002014E06B1CF3D052
:100E38009DB923681A6822F4D0721A609A6822F061
:100E480001029A60202384F8693084F86A3000230C
:100E580084F868300320BDE8F08100F0ABF8A0EB1F
:100E68000800A842D7D9E4E773B504460026C66649
:100E780000F0A0F823681B681A07054617D42368F2
:100E88001B685B070AD56FF07E43009300222B4650
:100E98004FF480012046FFF7B7FFA0B920230020B8
:100EA80084F8693084F8680084F86A300CE06FF0E0
:100EB8007E430093324603464FF400112046FFF765
:100EC800A3FF0028DBD0032002B070BD10B5044694
:100ED80060B390F8693003F0FF021BB980F868200E
:100EE800FFF766FB2268242384F86930136823F02F
:100EF800010313602046FFF793FE012816D0636AAA
:100F080013B12046FFF72CFF23685A6822F4904259
:100F18005A609A6822F02A029A601A6842F001021E
:100F280020461A60BDE81040FFF79EBF012010BDA3
:100F380038B50E4A0E4B054618784FF47A73B3FB52
:100F4800F0F31068B0FBF3F000F090FD044658B9D8
:100F58000F2D09D8024629464FF0FF3000F046FD14
:100F6800044B20461D6038BD0120FCE70800002026
:100F78000000002004000020074A08B5136843F069
:100F880010031360032000F01FFD0020FFF7D0FFBF
:100F9800FFF78EFA002008BD00200240034A044BE8
:100FA80011681B780B441360704700BF10010020C4
:100FB80000000020014B1868704700BF1001002096
:100FC8002DE9F347054618B9012002B0BDE8F087BE
:100FD8000368DA0711D42B689B0700F185802B681A
:100FE8001C0700F1F6802B68580700F13F81EA6979
:100FF800002A40F0D6810020E7E7BA4C636803F086
:101008000C03042B07D0636803F00C03082B16D1DC
:101018006368DF0313D54FF4003393FAA3F2216812
:1010280093FAA3F3B3FA83F303F01F03012202FA3E
:1010380003F30B42CFD06B68002BCCD1C4E76A68AE
:10104800B2F5803F25D1236843F480332360E36AF7
:10105800A96823F00F030B43E36252B3FFF7AAFF1B
:101068004FF400368046012796FAA6F3226896FACE
:10107800A6F3B3FA83F303F01F0307FA03F313424B
:10108800A9D1FFF797FFA0EB08006428ECD903204B
:101098009BE7236832B923F480332360236823F461
:1010A8008023D3E7B2F5A02FF5D143F48023236042
:1010B800C9E7FFF77FFF4FF400368046012796FA0D
:1010C800A6F3226896FAA6F3B3FA83F303F01F0394
:1010D80007FA03F313423FF47EAFFFF76BFFA0EB71
:1010E80008006428EBD9D2E77E4C636813F00C0F34
:1010F80007D0636803F00C03082B22D16368DE0372
:101108001FD4022393FAA3F2216893FAA3F3B3FA44
:1011180083F303F01F03012202FA03F30B4203D007
:101128002B6993427FF450AF2168F82393FAA3F315
:10113800B3FA83F26B69934021F0F80213432360FA
:101148004DE72A6901260AB396FAA6F3B3FA83F3A0
:1011580003F1845303F584139B0002271E60FFF7F5
:1011680029FF804697FAA7F3226897FAA7F3B3FAFC
:1011780083F303F01F0306FA03F31342D4D1FFF7F6
:1011880019FFA0EB08000228ECD980E796FAA6F32D
:10119800B3FA83F303F1845303F584139B00022706
:1011A8001A60FFF707FF804697FAA7F3226897FAB5
:1011B800A7F3B3FA83F303F01F0306FA03F313420A
:1011C8003FF40DAFFFF7F6FEA0EB08000228EBD9BD
:1011D8005DE7AA69434E444901241AB394FAA4F37B
:1011E800B3FA83F30B449B0002271C60FFF7E2FE6F
:1011F800804697FAA7F397FAA7F397FAA7F3726AC4
:1012080097FAA7F3B3FA83F303F01F0304FA03F37F
:1012180013427FF4E8AEFFF7CDFEA0EB08000228EA
:10122800E7D934E794FAA4F3B3FA83F30B449B00A9
:1012380002271A60FFF7BEFE804697FAA7F397FACF
:10124800A7F397FAA7F3726A97FAA7F3B3FA83F3A7
:1012580003F01F0304FA03F313423FF4C4AEFFF78D
:10126800A9FEA0EB08000228E7D910E71D4CE369A6
:10127800D90034D4E36943F08053E361E36903F0B0
:1012880080530193019B0126184F3B68DA052FD53F
:10129800EB68012B3DD1236A43F001032362FFF77A
:1012A80089FE02278246B9464FF0010897FAA7F34C
:1012B80097FAA7F3002B6CD0226A99FAA9F3B3FA2C
:1012C80083F303F01F0308FA03F3134258D0002EE8
:1012D8003FF48DAEE36923F08053E36187E600268F
:1012E800D2E700BF0010024020819010007000403B
:1012F8003B6843F480733B60FFF75CFE80463B68C5
:10130800DB05C5D4FFF756FEA0EB08006428F6D924
:10131800BDE63BBB236A23F001032362236A23F063
:1013280004032362FFF746FE02278246B9464FF0C0
:10133800010897FAA7F397FAA7F373B3226A99FA01
:10134800A9F3B3FA83F303F01F0308FA03F3134274
:10135800BDD0FFF72FFE41F28833A0EB0A00984278
:10136800E7D994E6052B236A03D143F004032362EB
:1013780091E723F001032362236A23F004038DE736
:10138800FFF718FE41F28833A0EB0A0098428DD986
:101398007DE697FAA7F3626A8FE797FAA7F3626A7E
:1013A800CDE7414C636803F00C03082B3FF40CAE07
:1013B800022A4FF0807352D193FAA3F3B3FA83F35E
:1013C80003F1845303F584139B0000221A60FFF78E
:1013D800F1FD4FF000778046012697FAA7F32268BF
:1013E80097FAA7F3B3FA83F303F01F0306FA03F39C
:1013F80013422DD1D5E9081362680B4322F4741205
:10140800134363604FF0807393FAA3F3B3FA83F343
:1014180003F1845303F584139B004FF000751E609D
:10142800FFF7C8FD0126074695FAA5F3226895FA45
:10143800A5F3B3FA83F303F01F0306FA03F3134289
:101448007FF4D9ADFFF7B6FDC01B0228ECD91EE624
:10145800FFF7B0FDA0EB08000228BED917E693FA03
:10146800A3F3B3FA83F303F1845303F584139B00C6
:1014780000221A60FFF79EFD4FF00075074601260F
:1014880095FAA5F3226895FAA5F3B3FA83F303F066
:101498001F0306FA03F313423FF4ADADFFF78AFDCD
:1014A800C01B0228ECD9F2E50010024010B5134C1D
:1014B800616801F00C03082B1ED14FF4701393FAE6
:1014C800A3F301F47012B3FA83F322FA03F30C4A7C
:1014D800D05CE36A0F2292FAA2F2B2FA82F203F027
:1014E8000F03D340074AD25CCB034ABF064B074BD6
:1014F800B3FBF2F3584310BD0348FCE70010024069
:10150800081C0008181C000800127A0000093D0099
:101518002DE9F0410D46044610B90120BDE8F081DF
:101528004B4A136803F007038B422DD322689107B7
:1015380035D4D2073BD4464A136803F00703AB42BD
:1015480073D82268434D12F0040F7AD1130706D5D9
:101558006B68226923F4605343EAC2036B60FFF7A8
:10156800A5FF6B68F02292FAA2F2B2FA82F203F0B7
:10157800F003D340384AD35CD840384B1860002079
:10158800FFF7D6FC0020C9E7136823F007030B43D5
:101598001360136803F007038B42BED1C6E72D49D9
:1015A800A0684B6823F0F00303434B60C1E762680F
:1015B800284E012A26D14FF4003393FAA3F131685B
:1015C80093FAA3F3B3FA83F303F01F0302FA03F3C6
:1015D8000B42A2D0736823F003031A437260FFF72B
:1015E800E9FC41F2883807467368626803F00C0327
:1015F800B3EB820F9FD0FFF7DDFCC01B4045F3D94A
:1016080003208BE7022A0CBF4FF00073022393FAE2
:10161800A3F1306893FAA3F3B3FA83F303F01F033B
:10162800012101FA03F30342D3E7136823F0070308
:101638002B431360136803F00703AB427FF46DAFCD
:101648007FE76B68E16823F4E0630B436B607DE739
:101658000020024000100240281C0008080000205A
:10166800084B4FF4E0625B6892FAA2F2B2FA82F297
:1016780003F4E063D340044AD35C044A1068D840BA
:10168800704700BF00100240381C00080800002006
:10169800084B4FF460525B6892FAA2F2B2FA82F2F7
:1016A80003F46053D340044AD35C044A1068D8401A
:1016B800704700BF00100240381C000808000020D6
:1016C80003682DE9F3470546D80320D5504CE36954
:1016D800D90044D4E36943F08053E361E36903F03C
:1016E80080530193019B01264A4F3B68DA0538D5A0
:1016F800236A13F4407348D1236A6A6823F4407359
:10170800134323621EB1E36923F08053E361286821
:10171800C10706D53E4AA968136B23F003030B43A0
:101728001363820606D53A4AE968136B23F010035F
:101738000B431363030606D5354A2969D36A23F494
:10174800F8730B43D36210F480501BD0304A696998
:10175800136B23F480730B431363002012E00026FD
:10176800C2E73B6843F480733B60FFF723FC804685
:101778003B68DB05BCD4FFF71DFCA0EB0800642820
:10178800F6D9032002B0BDE8F0876A6802F4407217
:101798009A42B1D0216A4FF4803321F4407093FA11
:1017A800A3F2DFF874C0B2FA82F262449200012711
:1017B800176093FAA3F3B3FA83F363449B00002200
:1017C8001A602062C80797D5FFF7F4FB4FF00208AC
:1017D8008246C14698FAA8F398FAA8F39BB1226A00
:1017E80099FAA9F3B3FA83F303F01F0307FA03F393
:1017F800134281D1FFF7DEFB41F28833A0EB0A00E8
:101808009842E7D9BDE798FAA8F3626AE8E700BF0B
:101818000010024000700040008190102DE9F04F48
:1018280085B00B68DFF86481564A01934FF00F09C1
:101838000023019CDC4002D105B0BDE8F08F0124F3
:1018480004FA03FA019C1AEA040500F093804C6834
:1018580024F0100BBBF1020F11D1DF0800EB870752
:1018680003F0070C3E6A4FEA8C0C09FA0CFE26EAD4
:101878000E0E0E6906FA0CF646EA0E063E624FEAAE
:10188800430E0327066807FA0EF7FF4304F0030C1C
:101898003E400CFA0EFC0BF1FF3B4CEA0606BBF18E
:1018A800010F066011D8866806EA070BCE6806FAAB
:1018B8000EFC4CEA0B068660466826EA0A0AC4F360
:1018C80000169E4046EA0A064660C66837408E689B
:1018D80006FA0EF63743E600C7604BD5D8F818600D
:1018E80046F00106C8F81860D8F8186023F0030716
:1018F80007F1804706F0010607F58037039603F0E5
:10190800030C039EBE684FEA8C0C09FA0CFEB0F17A
:10191800904F26EA0E0E2FD01B4EB0422ED006F561
:101928008066B0422CD006F58066B0420CBF032614
:10193800052606FA0CF646EA0E06BE601668EF4360
:1019480014F4803F0CBF3E402E431660566814F4D2
:10195800003F0CBF3E402E435660966814F4801F2B
:101968000CBF3E402E439660D668A40254BF3E404A
:101978002E43D66001335CE70026DAE70126D8E774
:101988000226D6E700040140000400480010024087
:101998000369194214BF0120002070470AB1816110
:1019A8007047816270474369594041617047704789
:1019B80008B5044B5969014202D05861FFF7F7FF97
:1019C80008BD00BF00040140074AD36823F4E06360
:1019D80000021B0400F4E0601B0C184340F0BF60D9
:1019E80040F40030D060704700ED00E0174B70B550
:1019F800DC68C4F30224C4F10705042D04F10403D0
:101A080028BF04254FF0FF36062B06FA05F58CBFD4
:101A1800033C002421EA0501A14006FA04F422EA65
:101A28000403002843EA0103A8BF00F160404FEA1D
:101A38000313BCBF00F00F00054ADBB2AABF00F5D4
:101A48006140135480F8003370BD00BF00ED00E022
:101A580014ED00E04209012300F01F0003FA00F032
:101A6800014B43F82200704700E100E00138B0F173
:101A7800807F0AD2064B074A5860F02182F823106B
:101A88000020072298601A6070470120704700BF45
:101A980010E000E000ED00E01549D1F8883043F48B
:101AA8007003C1F88830134B1A6842F001021A60BB
:101AB8005868114A02405A601A6822F0847222F467
:101AC80080321A601A6822F480221A605A6822F456
:101AD800FE025A60DA6A22F00F02DA62186B074ACD
:101AE80002401A6300229A604FF000638B607047CF
:101AF80000ED00E0001002400CC07FF8CCFC00FFB5
:101B0800054A5368116803EB83030B4413604FF0D5
:101B180080429363704700BF0C000020054A536859
:101B2800116803EB83030B4413604FF08042D363C7
:101B3800704700BF14000020DFF834D0002103E014
:101B48000C4B5B58435004310B480C4B42189A42DB
:101B5800F6D30B4A02E0002342F8043B094B9A42B1
:101B6800F9D3FFF799FF00F011F8FEF781FBFEE7C4
:101B780000300020481C0008000000201C00002045
:101B88001C00002014010020FEE7000070B50D4D78
:101B98000D4C641BA4100026A64209D10B4D0C4C19
:101BA80000F020F8641BA4100026A64205D170BDE1
:101BB80055F8043B98470136EEE755F8043B98473B
:101BC8000136F2E7401C0008401C0008401C0008D1
:101BD800441C000802440346934200D1704703F8AE
:101BE800011BF9E7F8B500BFF8BC08BC9E46704772
:0C1BF800F8B500BFF8BC08BC9E46704762
:101C04000004080202030405060708090A0B0C0D68
:101C14000E0F10100102030405060708090A0B0C35
:101C24000D0E0F100000000000000000010203046C
:0C1C34000607080900000000010203047C
:041C4000F1010008A6
:041C4400C9010008CA
:101C4800010000001000000000127A00F0D200002D
:0C1C580000000000F0D2000000000000BE
:0400000508001B4193
:00000001FF
