:020000040800F2
:1000000000300020591E0008C3030008C503000883
:10001000C7030008C9030008CB0300080000000064
:10002000000000000000000000000000CD030008F8
:10003000CF03000800000000D1030008D50300082A
:10004000A91E0008A91E0008A91E0008A91E000874
:10005000A91E0008A91E0008A91E0008A91E000864
:10006000A91E0008350400083B040008A91E00086A
:10007000A91E0008A91E0008A91E000841040008C6
:10008000A91E0008A91E0008A91E0008A91E000834
:10009000A91E0008A91E0008A91E00084D0400089A
:1000A000A91E0008A91E0008A91E0008A91E000814
:1000B000A91E0008A91E000800000000A91E0008D3
:1000C000A91E00080000000000000000A91E000892
:1000D00000000000A91E0008A91E0008A91E0008B3
:1000E000A91E0008A91E0008000000000000000072
:1000F0000000000000000000000000000000000000
:1001000000000000000000000000000000000000EF
:100110000000000000000000A91E0008A91E000841
:1001200000000000000000000000000000000000CF
:1001300000000000000000000000000000000000BF
:10014000A91E0008A91E0008000000000000000011
:10015000000000000000000000000000000000009F
:10016000000000000000000000000000000000008F
:10017000000000000000000000000000000000007F
:0801800000000000A91E0008A8
:1001880010B5054C237833B9044B13B10448AFF3C9
:1001980000800123237010BD14000020000000001F
:1001A800041F000808B5034B1BB103490348AFF30C
:1001B800008008BD0000000018000020041F00088F
:1001C80070B5182496B0224600210DA801F08EFEC5
:1001D8001422002101A801F089FE224600210DEB1E
:1001E800040001F083FE0125102300240226CDE936
:1001F80010530CA84FF4E013CDE914430C96139652
:1002080000F080FF0F23294601A8CDE90136CDE98A
:100218000344059401F01EFA06A80695089401F017
:10022800F1FA16B070BD000000B58DB05A4D5B4EA6
:1002380000F044FFFFF7C4FF142200210DEB020079
:1002480001F054FE6B6943F400336B616B6903F48E
:100258000033019300224FF400414FF09040019B7E
:1002680001F03AFC4E4B7822012405A94FF090404A
:10027800CDE90523079401F075FB4FF40043CDE960
:10028800053405A900244FF09040CDE9074401F05A
:1002980069FB22462146092001F0F6FC092001F0FD
:1002A80025FD224621460A2001F0EEFC0A2001F035
:1002B8001DFD22462146172001F0E6FC172001F01B
:1002C80015FD6B6943F001036B616B69354D03F0F4
:1002D80001032246214600930F20009B01F0D4FC25
:1002E8000F2001F003FD30483049846110238483D6
:1002F800C0E90013C0E90244C0E9044400F07EF9F3
:100308001C22214605A8CDE90244049401F0EEFD23
:100318004FF08043C5E90034254BAC602846C5E959
:100328000334AC6100F030FA02A928460294049420
:1003380000F04AFC4DF2F0236020CDE905030422C9
:1003480005A928460794099400F0B6FB082205A9D8
:10035800284600F0B1FB284600F0DCF8DFF854C06E
:1003680034614FF41643C6E900C330460C23C6E98E
:100378000534C6E90244C6E90744746200F048FE41
:100388000421284600F036FB0821284600F032FBFD
:10039800304601F017FDFEE7001002401C01002066
:1003A800000031108C010020B000002000640040E3
:1003B80080FC0A000038014070477047FEE7FEE7FE
:1003C800FEE7FEE7704770477047000070B500F021
:1003D80093FE1424B0FBF4F303FB140494B100F06F
:1003E8008BFE4FF4FA73B0FBF3F202FB13032BB945
:1003F8004FF400414FF0904001F073FBBDE87040AE
:1004080000F06EBE01F0C8FC074D0A2601F0F2FCB0
:100418000028E4D101F000FD2F28A0F1300098BF9A
:100428002C6006FB0404F1E70C000020082001F012
:100438005DBB102001F05ABB014801F0CDBB00BFE5
:10044800D800002008B5202001F050FBBDE8084086
:10045800402001F04BBB00000A4B9A6942F00102B0
:100468009A619A6982B002F001020092009ADA69F0
:1004780042F08052DA61DB6903F080530193019BFB
:1004880002B070470010024010B5044688B014222C
:10049800002103A801F02AFD2268144B9A4223D1B7
:1004A80003F5D6330021DA6942F00072DA61DA69BD
:1004B80002F000720192019A5A6942F400325A61BC
:1004C8005B6903F400330293029B4FF4C05202238A
:1004D800CDE903230323CDE905134FF09040092309
:1004E80003A9079301F03EFA08B010BD006400406C
:1004F8000368B3F1804F82B00AD103F50433DA6997
:1005080042F00102DA61DB6903F001030193019B08
:1005180002B0704710B5044686B01422002101A825
:1005280001F0E4FC2368B3F1804F18D103F50433DC
:1005380001A95A6942F400325A615B6903F4003335
:100548000093009B06220223CDE901230023CDE975
:1005580003334FF090400123059301F003FA06B0EE
:1005680010BD000070B5064688B01422002103A80B
:1005780001F0BCFC32681E4B9A4237D103F5584350
:1005880000259A691B4C42F480429A619A6902F4E8
:1005980080420192019A5A6942F400325A615B69B9
:1005A80003F400330293029B4FF4C0620223CDE9A7
:1005B80003230323CDE905534FF09040072303A9F4
:1005C800079301F0CFF90C4BA560C4E900358023EF
:1005D800C4E9033520462023C4E90635656101F0E6
:1005E80091FA08B1FFF7E8FE7466666208B070BD5C
:1005F80000380140D80000205800024038B50446B1
:1006080000286ED090F820300BB9FFF73DFF226824
:10061800136823F00203136000F06EFD054623689B
:100628005A68910751D41A6842F001021A6000F022
:1006380063FD054623685A68D20754D5227E012AED
:100648001A680CBF42F0800222F080021A60627EB3
:10065800012A1A680CBF42F0400222F040021A60D8
:10066800A27E012A1A680CBF42F0200222F0200262
:100678001A60E27E012A1A680CBF22F0100242F0CA
:1006880010021A60227F012A1A680CBF42F0080281
:1006980022F008021A60627F012A1A680CBF42F031
:1006A800040222F004021A60D4E902210A432169F3
:1006B8000A4361690A43616801390A43DA61002023
:1006C8000123606284F8203038BD00F015FD401B1E
:1006D8000A28A4D9636A43F400336362052384F8C3
:1006E80020300120F0E700F007FD401B0A28A1D9BF
:1006F800F0E70000214A0368904210B505D0B0F138
:10070800804F02D01E4CA0420CD14C6823F07003DD
:10071800904243EA040310D0B0F1804F0DD0184A3C
:1007280090420AD0174A904207D002F58062904260
:1007380003D002F58062904203D1CA6823F4407363
:1007480013434A6923F08003134303608B68C36231
:100758000B688362094B98420BD003F5A05398426B
:1007680007D003F58063984203D003F5806398426D
:1007780001D10B6903630123436110BD002C0140C3
:10078800000400400040014010B50446A0B190F8B4
:100798003D3003F0FF021BB980F83C20FFF7A8FEAC
:1007A8000223206884F83D30211DFFF7A3FF0123B1
:1007B80084F83D30002010BD0120FCE7036A23F0D7
:1007C80001030362036A70B5446882690D6822F404
:1007D800803222F073022A438D6823F002032B43F0
:1007E800174DA8420BD005F5A055A84207D005F52E
:1007F8008065A84203D005F58065A8421AD1CD6866
:1008080023F008032B430E4DA84223F004030BD01A
:1008180005F5A055A84207D005F58065A84203D084
:1008280005F58065A84205D124F44075D1E905464F
:1008380034432C43446082614A684263036270BD5A
:10084800002C0140036A23F010030362036A426824
:1008580070B584690D6824F0807424F4E64444EA91
:1008680005248D6823F0200343EA0513104DA842A0
:100878000ED1CD6823F0800343EA051323F040032B
:10088800D1E9055622F44062354342EA850209E07F
:10089800084DA842F4D0084DA842F1D005F580656E
:1008A800A842EDD042604A6884618263036270BDE9
:1008B800002C01400040014000440140036A23F439
:1008C80080730362036A426870B5C4690D6824F4D2
:1008D800803424F073042C438D6823F4007343EAB6
:1008E8000523114DA8420ED1CD6823F4006343EAD5
:1008F800052323F48063D1E9055622F44052354399
:1009080042EA051209E0094DA842F4D0084DA84270
:10091800F1D005F58065A842EDD042604A68C4610F
:10092800C263036270BD00BF002C0140004001405B
:1009380000440140036A23F480530362026A30B51D
:100948004468C3690D6823F0807323F4E64343EADF
:1009580005238D6822F4005242EA05320C4DA84264
:100968000BD005F5A055A84207D005F58065A8422B
:1009780003D005F58065A84204D14D6924F480446C
:1009880044EA85144460C3614B680364026230BD65
:10099800002C0140036A10B501248C4023EA0403AB
:1009A8000362036A02FA01F10B43036210BD0000FF
:1009B80010B5044601220068FFF7ECFF23680C4AD3
:1009C80093420BD002F5A052934207D002F5806201
:1009D800934203D002F58062934203D15A6C42F4E9
:1009E80000425A641A6842F001021A60002010BDE1
:1009F800002C0140FFF7DCBF036A23F48033036255
:100A0800026A30B54468436D0D6823F4803323F0DF
:100A180070032B438D6822F4003242EA05420D4DE3
:100A2800A8420BD005F5A055A84207D005F580656A
:100A3800A84203D005F58065A84204D14D6924F485
:100A4800803444EA0524446043654B688365026248
:100A580030BD00BF002C0140036A23F480130362F9
:100A6800026A30B54468436D0D6823F0807323F43F
:100A7800E04343EA05238D6822F4001242EA055256
:100A88000C4DA8420BD005F5A055A84207D005F596
:100A98008065A84203D005F58065A84204D14D6958
:100AA80024F4802444EA8524446043654B68C36584
:100AB800026230BD002C014038B590F83C30012B63
:100AC80004460D464FF0020012D001230C2A84F888
:100AD8003C3084F83D0054D00BD8042A2FD0082A83
:100AE8003ED0DAB10123002084F83D3084F83C0080
:100AF80038BD102A56D0142AF4D12068FFF7ACFF6D
:100B0800236809695A6D42F400625A655A6D22F4E5
:100B180080625A655A6D42EA012252E02068FFF766
:100B28004DFE236829699A6942F008029A619A6918
:100B380022F004029A619A690A439A61D2E720680E
:100B4800FFF780FE236829699A6942F400629A6176
:100B58009A6922F480629A619A6942EA0122ECE772
:100B68002068FFF7ABFE23682969DA6942F00802BA
:100B7800DA61DA6922F00402DA61DA690A43DA61D1
:100B8800B0E72068FFF7D6FE23682969DA6942F4DE
:100B98000062DA61DA6922F48062DA61DA6942EACB
:100BA8000122ECE72068FFF727FF236809695A6DDF
:100BB80042F008025A655A6D22F004025A655A6DCD
:100BC8000A435A658EE7000030B590F83C30012B97
:100BD80018D002680C4D53689468AA4202BF4D6849
:100BE80023F470032B430D68896823F070032B43AB
:100BF80024F08004536021430023916080F83C3046
:100C0800184630BD0220FCE7002C014003681A6832
:100C180022F490721A609A6822F001029A602023E6
:100C280080F86A307047000070B590F86A30202B61
:100C3800044632D179B372B390F86830012B2CD0C6
:100C4800012380F86830002522234165A0F8582048
:100C5800C56680F86A30406E114B8362114B266876
:100C6800C362114BC0E90C3513460A4606F124014C
:100C780000F076FF236884F868501A6842F480729E
:100C88001A609A6842F001029A609A6842F040023B
:100C98009A60284670BD0120FCE70220FAE700BFF1
:100CA800B70C0008F30C0008FF0C0008704708B5E3
:100CB8000346406A1B681B6813F0200311D1A0F893
:100CC8005A3003681A6822F480721A609A6822F00F
:100CD80001029A609A6822F040029A60202380F804
:100CE8006A30FFF7E3FF08BD704708B5406AFFF7B1
:100CF800FBFF08BD704708B5406A90F86930212BA2
:100D08000DD103689A68120609D50022A0F852206E
:100D18001A6822F0C0021A60202380F8693090F81F
:100D28006A30222B08D103689B685B0604D5002330
:100D3800A0F85A30FFF76AFFC36E43F01003C3668A
:100D4800FFF7D8FF08BD000038B5C169036882689D
:100D58001D68044600690243606902434A480A4321
:100D6800284002431A605A68E068256A22F4405213
:100D780002435A609868A26920F430602A4302430B
:100D88009A60424A934214D1414B1B6B03F0030310
:100D9800013B022B14D83F4AB1F5004FD35C41D137
:100DA800082B3CD8DFE803F00F21243B2D3B3B3BCD
:100DB8003600394A934203D002F5806293425DD1EE
:100DC800B1F5004F37D100F0EDFC63685A0802EB2B
:100DD8004000B0FBF3F39BB2002023F00F02216820
:100DE800C3F342031343CB6038BD00F0F3FCECE7D8
:100DF8006268530803F5740303F51053B3FBF2F369
:100E0800E9E700F0F5FB61684A0802EB4003B3FB31
:100E1800F1F3E0E76268530803F58033EEE7012059
:100E28000023DAE7082B2CD8DFE803F00511142B90
:100E3800202B2B2B230000F0B5FCD4E9002300EB7A
:100E48005300B0FBF3F080B2D0600020CCE700F094
:100E5800C1FCF2E76268530803F5F40303F5905305
:100E6800B3FBF2F3094A9BB2D360EEE700F0C0FB94
:100E7800E3E76268530803F50043F1E7B1F5004F73
:100E8800CDD00120B0E700BFF369FFEF0038014083
:100E9800001002401C1F000800440040436ADA07A3
:100EA80010B506D50168846A4A6822F400322243E4
:100EB8004A609C0706D50168C46A4A6822F48032F1
:100EC80022434A60590706D50168046B4A6822F430
:100ED800802222434A601A0706D50168446B4A6893
:100EE80022F4004222434A60DC0606D50168846B7E
:100EF8008A6822F4805222438A60990606D50168DE
:100F0800C46B8A6822F4005222438A605A060FD5BD
:100F18000168046C4A6822F480122243B4F5801FE9
:100F28004A6005D14A68446C22F4C00222434A60F0
:100F38001B0606D50268816C536823F400230B4313
:100F4800536010BD2DE9F041DDF8188004460E46C7
:100F580015461F462268D36936EA03030CBF0123EE
:100F68000023AB4201D0002017E0B8F1FF3FF2D0D8
:100F7800B8F1000F13D123681A6822F4D0721A60EE
:100F88009A6822F001029A60202384F8693084F874
:100F98006A30002384F868300320BDE8F08100F04F
:100FA800ABF8C01B4045D5D9E5E730B50446002568
:100FB80085B0C56600F0A0F82268126811070346DC
:100FC80016D422681268520709D56FF07E42009243
:100FD8004FF4800100222046FFF7B4FFA8B9202370
:100FE800002084F8693084F8680084F86A300DE0DD
:100FF8006FF07E42009203902A464FF4001120467B
:10100800FFF7A0FF039B0028DBD0032005B030BD0D
:1010180010B5044660B390F8693003F0FF021BB9BD
:1010280080F86820FFF79EFA2268242384F8693044
:10103800136823F0010313602046FFF785FE01289B
:1010480016D0636A13B12046FFF728FF23685A6851
:1010580022F490425A609A6822F02A029A601A682A
:1010680042F0010220461A60BDE81040FFF79DBF1C
:10107800012010BD38B50E4A0E4B054618784FF4BE
:101088007A73B3FBF0F31068B0FBF3F000F03AFEAC
:10109800044658B90F2D09D8024629464FF0FF30AB
:1010A80000F0F2FD044B20461D6038BD0120FCE72E
:1010B800080000200000002004000020074A08B5AE
:1010C800136843F010031360032000F0CBFD0020E9
:1010D800FFF7D0FFFFF7C0F9002008BD002002404D
:1010E800034A044B11681B780B441360704700BF18
:1010F800CC01002000000020014B1868704700BF99
:10110800CC0100202DE9F347054618B9012002B0AB
:10111800BDE8F0870368DA0711D42B689B0700F154
:1011280085802B681C0700F1F6802B68580700F1B2
:101138003F81EA69002A40F0D6810020E7E7BA4CEF
:10114800636803F00C03042B07D0636803F00C03F7
:10115800082B16D16368DF0313D54FF4003393FAD5
:10116800A3F2216893FAA3F3B3FA83F303F01F03FE
:10117800012202FA03F30B42CFD06B68002BCCD1CB
:10118800C4E76A68B2F5803F25D1236843F4803309
:101198002360E36AA96823F00F030B43E36252B3A9
:1011A800FFF7AAFF4FF4003706464FF0010897FAF9
:1011B800A7F3226897FAA7F3B3FA83F303F01F03A0
:1011C80008FA03F31342A8D1FFF796FF831B642B99
:1011D800EDD903209BE7236832B923F480332360D9
:1011E800236823F48023D3E7B2F5A02FF5D143F485
:1011F80080232360C9E7FFF77FFF4FF400370646D7
:101208004FF0010897FAA7F3226897FAA7F3B3FA01
:1012180083F303F01F0308FA03F313423FF47DAF8F
:10122800FFF76AFF831B642BECD9D2E77E4C636817
:1012380013F00C0F07D0636803F00C03082B22D1BE
:101248006368DE031FD4022393FAA3F2216893FA9A
:10125800A3F3B3FA83F303F01F03012202FA03F3A3
:101268000B4203D02B6993427FF450AF2168F823D7
:1012780093FAA3F3B3FA83F26B69934021F0F8026F
:10128800134323604DE72A6901260AB396FAA6F3A9
:10129800B3FA83F303F1845303F584139B004FF0EF
:1012A80002081E60FFF728FF074698FAA8F322688D
:1012B80098FAA8F3B3FA83F303F01F0306FA03F3CB
:1012C8001342D3D1FFF718FFC31B022BEDD980E7D8
:1012D80096FAA6F3B3FA83F303F1845303F5841360
:1012E8009B004FF002081A60FFF706FF074698FABE
:1012F800A8F3226898FAA8F3B3FA83F303F01F035C
:1013080006FA03F313423FF40CAFFFF7F5FEC31BD5
:10131800022BECD95DE7AA69434E444901241AB36C
:1013280094FAA4F3B3FA83F30B449B0002271C60DE
:10133800FFF7E2FE804697FAA7F397FAA7F397FA22
:10134800A7F3726A97FAA7F3B3FA83F303F01F03BC
:1013580004FA03F313427FF4E8AEFFF7CDFEA0EBE7
:101368000803022BE7D934E794FAA4F3B3FA83F31A
:101378000B449B0002271A60FFF7BEFE804697FACF
:10138800A7F397FAA7F397FAA7F3726A97FAA7F35E
:10139800B3FA83F303F01F0304FA03F313423FF491
:1013A800C4AEFFF7A9FEA0EB0803022BE7D910E7AC
:1013B8001D4CE369D90034D4E36943F08053E361F9
:1013C800E36903F080530193019B0126184F3B68A2
:1013D800DA052FD5EB68012B3DD1236A43F00103D1
:1013E8002362FFF789FE02278046BA464FF00109BB
:1013F80097FAA7F397FAA7F3002B6CD0226A9AFA08
:10140800AAF3B3FA83F303F01F0309FA03F31342B1
:1014180058D0002E3FF48DAEE36923F08053E3618A
:1014280087E60026D2E700BF001002402081901016
:10143800007000403B6843F480733B60FFF75CFE3C
:1014480080463B68DB05C5D4FFF756FEA0EB0800D5
:101458006428F6D9BDE63BBB236A23F00103236267
:10146800236A23F004032362FFF746FE022780461F
:10147800BA464FF0010997FAA7F397FAA7F373B39F
:10148800226A9AFAAAF3B3FA83F303F01F0309FA5C
:1014980003F31342BDD0FFF72FFE41F28833A0EBD0
:1014A80008009842E7D994E6052B236A03D143F054
:1014B8000403236291E723F001032362236A23F0E4
:1014C80004038DE7FFF718FE41F28833A0EB08000C
:1014D80098428DD97DE697FAA7F3626A8FE797FA63
:1014E800A7F3626ACDE7414C636803F00C03082B4D
:1014F8003FF40CAE022A4FF0807351D193FAA3F354
:10150800B3FA83F303F1845303F584139B00002299
:101518001A60FFF7F1FD4FF000780746012698FAA8
:10152800A8F3226898FAA8F3B3FA83F303F01F0329
:1015380006FA03F313422DD1D5E9081362680B4369
:1015480022F47412134363604FF0807393FAA3F389
:10155800B3FA83F303F1845303F584139B00012743
:101568001E60FFF7C9FD4FF00076054696FAA6F310
:10157800226896FAA6F3B3FA83F303F01F0307FA77
:1015880003F313427FF4D9ADFFF7B6FD401B0228E1
:10159800ECD91EE6FFF7B0FDC31B022BBFD918E636
:1015A80093FAA3F3B3FA83F303F1845303F5841393
:1015B8009B0000221A60FFF79FFD4FF0007605465A
:1015C800012796FAA6F3226896FAA6F3B3FA83F3EC
:1015D80003F01F0307FA03F313423FF4AEADFFF71E
:1015E8008BFD401B0228ECD9F3E500BF0010024038
:1015F80010B5134C616801F00C03082B1ED14FF491
:10160800701393FAA3F301F47012B3FA83F322FA76
:1016180003F30C4AD05CE36A0F2292FAA2F2B2FA00
:1016280082F203F00F03D340074AD25CCB034ABFD0
:10163800064B074BB3FBF2F3584310BD0348FCE7D6
:10164800001002401F1F00082F1F000800127A0018
:1016580000093D002DE9F0410D46044610B901206E
:10166800BDE8F0814B4A136803F007038B422DD382
:101678002268910735D4D2073BD4464A136803F051
:101688000703AB4273D82268434D12F0040F7AD196
:10169800130706D56B68226923F4605343EAC20333
:1016A8006B60FFF7A5FF6B68F02292FAA2F2B2FA1C
:1016B80082F203F0F003D340384AD35CD840384B69
:1016C80018600020FFF7D6FC0020C9E7136823F054
:1016D80007030B431360136803F007038B42BED163
:1016E800C6E72D49A0684B6823F0F00303434B601D
:1016F800C1E76268284E012A26D14FF4003393FAD5
:10170800A3F1316893FAA3F3B3FA83F303F01F0349
:1017180002FA03F30B42A2D0736823F003031A43BF
:101728007260FFF7E9FC41F288380746736862681F
:1017380003F00C03B3EB820F9FD0FFF7DDFCC01B57
:101748004045F3D903208BE7022A0CBF4FF0007302
:10175800022393FAA3F1306893FAA3F3B3FA83F35D
:1017680003F01F03012101FA03F30342D3E71368CF
:1017780023F007032B431360136803F00703AB42FE
:101788007FF46DAF7FE76B68E16823F4E0630B4398
:101798006B607DE700200240001002403F1F0008F8
:1017A80008000020084B4FF4E0625B6892FAA2F24E
:1017B800B2FA82F203F4E063D340044AD35C044AE9
:1017C8001068D840704700BF001002404F1F000843
:1017D80008000020084B4FF460525B6892FAA2F2AE
:1017E800B2FA82F203F46053D340044AD35C044A49
:1017F8001068D840704700BF001002404F1F000813
:101808000800002003682DE9F347DC03054620D5CE
:10181800514CE369D80046D4E36943F08053E3614F
:10182800E36903F080530193019B01264B4F3B680A
:10183800D9053AD5236A13F440734AD1236A6A68F2
:1018480023F44073134323621EB1E36923F08053EA
:10185800E3612B68D80706D53F49A8680A6B22F0D0
:10186800030202430A63990606D53B49E8680A6BF6
:1018780022F0100202430A631A0606D5364928697F
:10188800CA6A22F4F8720243CA6213F480531FBF73
:10189800314A6969136B23F480731DBF0B431363CB
:1018A8000020184612E00026C0E73B6843F4807326
:1018B8003B60FFF721FC80463B68DA05BAD4FFF7A6
:1018C8001BFCA0EB08006428F6D9032002B0BDE891
:1018D800F0876A6802F440729A42AFD0216A4FF4E6
:1018E800803321F4407093FAA3F2DFF874C0B2FA9F
:1018F80082F2624492000127176093FAA3F3B3FAC5
:1019080083F363449B0000221A60CB07206295D5BD
:10191800FFF7F2FB4FF002088146C24698FAA8F397
:1019280098FAA8F3A3B1226A9AFAAAF3B3FA83F34E
:1019380003F01F0307FA03F313427FF47FAFFFF7A7
:10194800DBFB41F28833A0EB09009842E6D9BCE7FB
:1019580098FAA8F3626AE7E70010024000700040B6
:10196800008190102DE9F74FDFF86881574C00236C
:101978004FF00F090A6832FA03F502D103B0BDE847
:10198800F08F012505FA03FA1AEA020200F09580A1
:101998004D6825F0100EBEF1020F11D1DF0800EBE3
:1019A800870703F0070C3E6A4FEA8C0C09FA0CFB18
:1019B80026EA0B0B0E6906FA0CF646EA0B063E629F
:1019C800D0F800B04FEA430C032606FA0CF72BEACE
:1019D800070BFE4305F0030707FA0CF70EF1FF3E6D
:1019E80047EA0B07BEF1010F076011D8876806EABE
:1019F800070ECF6807FA0CF747EA0E0787604768B3
:101A080027EA0A0AC5F300179F4047EA0A07476012
:101A1800C76837408E6806FA0CF63E43C660EE008B
:101A28004BD5D8F8186046F00106C8F81860D8F801
:101A3800186023F0030707F1804706F0010607F551
:101A48008037019603F0030C019EBE684FEA8C0CA8
:101A580009FA0CFEB0F1904F26EA0E0E2FD01C4E5C
:101A6800B0422ED006F58066B0422CD006F58066CE
:101A7800B0420CBF0326052606FA0CF646EA0E0607
:101A8800BE602668D74315F4803F0CBF3E4016431E
:101A98002660666815F4003F0CBF3E40164366603A
:101AA800A66815F4801F0CBF3E401643A660E66882
:101AB800AD0254BF3E401643E66001335AE70026A4
:101AC800DAE70126D8E70226D6E700BF000401407E
:101AD80000040048001002400AB181617047816229
:101AE800704743695940416170477047044A5169DA
:101AF800014208B502D05061FFF7F7FF08BD00BFEB
:101B08000004014010B520B3D0E901342343C46870
:101B18000168234304690A682343446923438469A9
:101B28002343C46922F47F5222F030022343134333
:101B38000B60094B14220B44B3FBF2F39B000364C4
:101B4800064BC3634FF480720023836302841846F4
:101B580010BD0120FCE700BFF8FFFDBF00000240F8
:101B6800F0B590F82040012C34D090F82150012491
:101B7800A54280F820404FF000064FF0020427D11C
:101B880080F8214004688663266826F001062660EE
:101B9800D0E90F67BD40756063604368102BC36A66
:101BA8000BBFA260A160E160E2604BB1236843F023
:101BB8000E032360236843F0010323600020F0BD77
:101BC800236843F00A032360236823F00403F0E743
:101BD80080F820600220F2E7C16B026C036870B4E1
:101BE8000E681D680424944034420ED015F0040F8A
:101BF8000BD01A6892065EBF1A6822F004021A60B7
:101C0800C36A4C6063B370BC1847022494403442E2
:101C180012D015F0020F0FD01A68950606D41A686C
:101C280022F00A021A60012380F8213000234C6058
:101C380080F82030836AE5E70824944034420FD0C6
:101C48002C070DD51C6824F00E041C60012303FA30
:101C580002F24A6083634FF480730384036BD1E715
:101C680070BC70470749CA6822F4E0620302120494
:101C780003F4E063120C134343F0BF6343F40033EF
:101C8800CB60704700ED00E0164B30B5DC68C4F35C
:101C98000224C4F10705231D042D28BF0425062BA3
:101CA8004FF0FF338CBF033C002403FA05F521EA0B
:101CB8000501A34022EA0302A140002841EA0203E9
:101CC800ACBF00F16040084A4FEA0313B8BF00F008
:101CD8000F00DBB2AABF00F56140135480F800334F
:101CE80030BD00BF00ED00E014ED00E04209012323
:101CF80000F01F0003FA00F0014B43F82200704780
:101D080000E100E00138B0F1807F0AD2064B074AB3
:101D18005860F02182F823100020072298601A608A
:101D280070470120704700BF10E000E000ED00E0C0
:101D38001549D1F8883043F47003C1F88830134B43
:101D48001A6842F001021A605868114A02405A6043
:101D58001A6822F0847222F480321A601A6822F417
:101D680080221A605A6822F4FE025A60DA6A22F067
:101D78000F02DA62186B074A02401A6300229A605F
:101D88004FF000638B60704700ED00E000100240E8
:101D98000CC07FF8CCFC00FF4FF090431A69084B49
:101DA80012F0080F1CBF46F678111960D20644BF1E
:101DB80044F250621A601A684FF080439A63704781
:101DC8000C000020084A03681060084A00211160CE
:101DD8001A68074922F480721A609A6822F0010290
:101DE8009A608022FEF720BFD0010020D401002095
:101DF80030000020064B074A1B6810685B6E1B68A2
:101E08005B685B4203F07F031B1A584258417047D6
:101E1800D0010020D40100200A4B0B491B685B6EDF
:101E28001B685A680B68524202F07F0293421FBF38
:101E3800064AD05C013303F07F0314BF0B60002017
:101E4800704700BFD0010020D401002030000020DE
:101E5800DFF834D0002103E00C4B5B5843500431C9
:101E68000B480C4B42189A42F6D30B4A02E0002367
:101E780042F8043B094B9A42F9D3FFF759FF00F0A7
:101E880011F8FEF7D1F9FEE700300020601F0008C6
:101E9800000000201400002014000020D8010020B9
:101EA800FEE7000070B50D4D0D4C641BA410002614
:101EB800A64209D10B4D0C4C00F020F8641BA4106D
:101EC8000026A64205D170BD55F8043B9847013657
:101ED800EEE755F8043B98470136F2E7581F00082B
:101EE800581F0008581F00085C1F000802440346DA
:101EF800934200D1704703F8011BF9E7F8B500BF1A
:101F0800F8BC08BC9E467047F8B500BFF8BC08BCD2
:041F18009E4670472A
:101F1C0004080202030405060708090A0B0C0D0E3F
:101F2C000F10100102030405060708090A0B0C0D1B
:101F3C000E0F100000000000000000010203040658
:0C1F4C0007080900000000010203040067
:041F5800AD010008CF
:041F5C0089010008EF
:101F6000010000001000000000127A00504600003E
:041F7000786900008C
:0400000508001E5978
:00000001FF
