:020000040800F2
:1000000000300020E10E0008390700083B07000817
:100010003D0700083F0700084107000800000000F6
:10002000000000000000000000000000430700087E
:1000300045070008000000004707000849070008BE
:10004000310F0008310F0008310F0008310F000890
:10005000310F0008310F0008310F0008310F000880
:10006000310F0008310F0008310F0008310F000870
:10007000310F0008310F0008310F0008310F000860
:10008000310F0008310F0008310F0008310F000850
:10009000310F0008310F0008310F0008310F000840
:1000A000310F0008310F0008310F0008310F000830
:1000B000310F0008310F000800000000310F000868
:1000C000310F00080000000000000000310F0008A0
:1000D00000000000310F0008310F0008310F000848
:1000E000310F0008310F0008000000000000000080
:1000F0000000000000000000000000000000000000
:1001000000000000000000000000000000000000EF
:100110000000000000000000310F0008310F00084F
:1001200000000000000000000000000000000000CF
:1001300000000000000000000000000000000000BF
:10014000310F0008310F000800000000000000001F
:10015000000000000000000000000000000000009F
:10016000000000000000000000000000000000008F
:10017000000000000000000000000000000000007F
:0801800000000000310F00082F
:100188000348044B834202D0034B03B1184770471E
:10019800080000200800002000000000054806496B
:1001A800091A891001EBD171491002D0034B03B130
:1001B80018477047080000200800002000000000D1
:1001C80010B5064C237843B9FFF7DAFF044B13B197
:1001D8000448AFF300800123237010BD08000020FD
:1001E800000000008C0F000808B5054B1BB105493D
:1001F8000548AFF30080BDE80840FFF7CFBF00BF58
:10020800000000000C0000208C0F000800B589B029
:10021800002302930393049305930693079303F132
:10022800804303F504335A6942F400325A615A692B
:1002380002F400320192019A5A6942F480225A610A
:100248005B6903F480230093009B0F23029301232F
:10025800069302A94FF0904000F08CFA09B05DF8BF
:1002680004FB00002DE9F04196B00024CDF846408B
:10027800CDF84A40CDF84E40CDF85240ADF8564042
:100288002022214609A800F075FE039404940594E1
:10029800069407940894424EF36943F00203F3610D
:1002A800F36903F002030293029B0127ADF844703F
:1002B8004DF2F02313933B4D11A9284600F068FC3A
:1002C8002B6843F080032B60AB6823F4A03323F042
:1002D8000703AB60DFF8D480AB6943F40063AB611C
:1002E800602309930A970B9440F2DC530C930D9406
:1002F80009AA1021284600F093FCAB6923F4806317
:10030800AB61D8F8043043F00803C8F804300A9702
:100318000B9409AA4FF48071284600F081FCD8F8A4
:10032800043023F00403C8F804306B6823F070032A
:100338006B60AB6823F08003AB602B683B432B609A
:100348006B6C43F400436B64736943F4003373616B
:10035800736903F400330193019B736943F48023A9
:100368007361736903F480230093009B80230393D4
:1003780002250495059406940794089503A94FF05F
:10038800904000F0F7F903970495059406940794B4
:10039800089503A9044800F0EDF916B0BDE8F0810E
:1003A8000010024000040040000400481804004007
:1003B80010B590B0002409940A940B940C940D94F1
:1003C8000E940F9403940494059406940794089447
:1003D800204B9A6942F480429A619A6902F48042F9
:1003E8000292029A5A6942F400325A615B6903F434
:1003F80000330193019B4FF4C063039302230493DA
:10040800032305930723089303A94FF0904000F0B6
:10041800B1F94FF4165309930A940B940C940C23D6
:100428000D930E940F940C4C09A9204600F026FC5D
:10043800A36823F48063A360636823F49043636034
:10044800A36823F02A03A360236843F00103236011
:1004580010B010BD0010024000380140024A136875
:1004680001331360704700BF0000002038B52E4AE2
:10047800136823F0070343F0010313601368A2F520
:100488008052136843F001031360284B1B6813F074
:10049800020FFAD0254B1A6822F0F80242F08002C7
:1004A8001A605A6822F4741242F4E0125A60DA6A46
:1004B80022F00F02DA621A6842F080721A601B4B4F
:1004C8001B6813F0007FFAD0184B5A6822F0F0022C
:1004D8005A605A6822F4E0625A605A6822F46052FC
:1004E8005A605A6822F0030242F002025A600F4B27
:1004F8005B6803F00C03082BF9D10D4D284600F07A
:1005080023F90C4C236843F004032360284600F0C9
:100518002BF9064A136B23F003031363236843F094
:100528000203236038BD00BF0020024000100240D3
:100538000051250210E000E000B583B0704B9A69C5
:1005480042F001029A619A6902F001020192019A4D
:10055800DA6942F08052DA61DB6903F08053009374
:10056800009B6849CA6822F4E0621204120C664BC8
:100578001343CB60FFF77AFFFFF748FEFFF772FEE1
:10058800FFF716FF614B46F678125A60604B46F249
:1005980090525A607AE05E4B5A685E4B9A6346F610
:1005A8007811D9635C4981FB0231D317C3EB21333E
:1005B8003033DBB259490B85584BDB6913F0800F98
:1005C800FAD0554981FB0231D317C3EB213342F2EC
:1005D800107101FB1323524981FB0301DB17C3EBA5
:1005E800A1133033DBB24D490B854C4BDB6913F05B
:1005F800800FFAD04A4981FB0231D317C3EBA1130C
:100608004FF47A7101FB1323464981FB0301DB1781
:10061800C3EB61133033DBB240490B853F4BDB69D9
:1006280013F0800FFAD03F4981FB0231D317C3EB97
:100638006113642101FB13233B4981FB0301DB1791
:10064800C3EBA1033033DBB234490B85334BDB6991
:1006580013F0800FFAD0344981FB0231D317C3EB72
:10066800A10303EB83035900531A3033DBB22B4A3F
:1006780013852A4BDB6913F0800FFAD0274B0A2227
:100688001A85264BDB6913F0800FFAD0274B1A68BE
:10069800234981FB0231D317C3EB61134FF4FA717D
:1006A80001FB1323002BF1D14FF090431B6913F08A
:1006B800010F03D1164A53680B4453604FF090431F
:1006C8001B6913F0020F04D1114A5368A3F5FA739A
:1006D80053604FF090431B6913F0040F03D10C4A89
:1006E8005368323B53604FF090431B6913F0080F77
:1006F8007FF451AF064A5368323353604BE700BF6B
:100708000010024000ED00E00003FA05240000207C
:100718003000002000040040AD8BDB680038014049
:10072800D34D62101F85EB51676666660000002096
:100738007047FEE7FEE7FEE7FEE770477047704741
:1007480008B5FFF78BFE08BD054BA3FB00308009F9
:100758000138044B586000229A6005221A607047DD
:10076800D34D621010E000E0014B1860704700BFE5
:1007780004000020F0B40C6894FAA4F4B4FA84F4E9
:100788002CE08E68826893FAA3F5B5FA85F56D00BA
:1007980007FA05F522EA050293FAA3F5B5FA85F5F5
:1007A8006D0006FA05F52A4382600E69C26893FA5D
:1007B800A3F5B5FA85F56D00032707FA05F522EAD2
:1007C800050293FAA3F5B5FA85F56D0006FA05F565
:1007D8002A43C2604A68022A22D001340B6833FADD
:1007E80004F250D00122A2401340F6D04E680268AD
:1007F80093FAA3F5B5FA85F56D00032707FA05F511
:1008080022EA050293FAA3F5B5FA85F56D0006FA12
:1008180005F52A4302604A68013A012AC5D8B0E7BB
:1008280093FAA3F2B2FA82F2072A15D84D69026A3E
:1008380093FAA3F6B6FA86F6B6000F2707FA06F675
:1008480022EA060293FAA3F3B3FA83F39B0005FAAC
:1008580003F313430362C0E74A69456A1B0A93FA24
:10086800A3F6B6FA86F6B6000F2707FA06F625EAC3
:10087800060593FAA3F3B3FA83F39B0002FA03F392
:100888002B434362A9E74A68013A012A02D90020AA
:10089800F0BC7047C968426822EA030201FB03F30F
:1008A80013434360F3E7000030B4036A23F0010305
:1008B8000362036A4468826922F4803222F0730278
:1008C8000D682A4323F002030D692B4323F001032B
:1008D8004D682B43144DA8420BD005F5A055A842EE
:1008E80007D005F58065A84203D005F58065A842C4
:1008F80012D123F008034D6943EA850323F004036A
:100908008D6843EA850324F480748D692C4324F4AC
:100918000074CD6944EA450444608261CA68426350
:100928000362002030BC7047002C014030B4036AD9
:1009380023F010030362036A4468826922F080721C
:1009480022F4E6420D6842EA052223F020030D69ED
:1009580043EA051323F010034D6843EA0513154DC8
:10096800A8420BD005F5A055A84207D005F580652B
:10097800A84203D005F58065A84213D123F080036F
:100988004D6943EA851323F040038D6843EA8513D4
:1009980024F480648D6944EA850424F40064CD69F4
:1009A80044EAC50444608261CA6882630362002025
:1009B80030BC7047002C014030B4036A23F48073C4
:1009C8000362036A4468C26922F4803222F0730227
:1009D8000D682A4323F400730D6943EA052323F4C1
:1009E80080734D6843EA0523154DA8420BD005F5E1
:1009F800A055A84207D005F58065A84203D005F5A3
:100A08008065A84213D123F400634D6943EA852326
:100A180023F480638D6843EA852324F480548D6928
:100A280044EA051424F40054CD6944EA45144460AA
:100A3800C261CA68C2630362002030BC704700BF4D
:100A4800002C014030B4036A23F480530362036A24
:100A58004468C26922F0807222F4E6420D6842EAD4
:100A6800052223F400530D6943EA053323F4805328
:100A78004D6843EA05330E4DA8420BD005F5A05545
:100A8800A84207D005F58065A84203D005F5806522
:100A9800A84204D124F480448D6944EA8514446052
:100AA800C261CA6802640362002030BC704700BF9C
:100AB800002C014030B4036A23F480330362036AD4
:100AC800426D22F4803222F070020C68224323F433
:100AD80000330C6943EA044323F480334C6843EA47
:100AE80004430E4CA0420BD004F5A054A04207D0FA
:100AF80004F58064A04203D004F58064A04206D1C6
:100B0800446824F480348D6944EA052444604265CD
:100B1800CA6882650362002030BC7047002C01401F
:100B280030B4036A23F480130362036A426D22F02F
:100B3800807222F4E0420C6842EA042223F4001393
:100B48000C6943EA045323F480134C6843EA0453C2
:100B58000E4CA0420BD004F5A054A04207D004F5D7
:100B68008064A04203D004F58064A04206D14468A2
:100B780024F480248D6944EA852444604265CA6867
:100B8800C2650362002030BC704700BF002C0140E2
:100B98000368224A904206D0B0F1804F03D0A2F5F4
:100BA8009432904203D123F070034A6813431B4ADE
:100BB800904212D0B0F1804F0FD0A2F594329042FB
:100BC8000BD002F59E32904207D002F58062904227
:100BD80003D002F58062904203D123F44073CA68BF
:100BE800134303608B68C3620B8883620B4B984284
:100BF8000BD003F5A053984207D003F580639842C1
:100C080003D003F58063984201D10B7C03634369E9
:100C180043F0010343610020704700BF002C0140EE
:100C280008B5B1F5807F19D00AD9B1F5803F1DD03C
:100C3800B1F5801F1ED0B1F5805F13D0012008BD2B
:100C4800012907D0102903D11146FFF76FFEF6E7F7
:100C58000120F4E71146FFF727FEF0E71146FFF7FA
:100C6800ABFEECE71146FFF7EDFEE8E71146FFF7AC
:100C780021FFE4E71146FFF753FFE0E7036813F0AD
:100C8800010F51D130B585B00D4604460368294A95
:100C98001A404B68C9680B4329690B43A9690B4380
:100CA80013430360AB68426822F440521343436025
:100CB8006B69826822F44072134383601E4B98422A
:100CC80008D01E4B984217D01D4B984219D00120CE
:100CD80005B030BD002000F09DF838B32A683AB35B
:100CE800AB69B3F5004F11D000EB5203B3FBF2F33D
:100CF8009BB2E3600020EBE7684600F07BF80298BF
:100D0800EBE7684600F076F80298E6E7530803EB4D
:100D18004003B3FBF2F34FF6F0721A40C3F34203F9
:100D28001343E3600020D3E7012070470120CFE799
:100D38000120CDE7F369FFEF00380140004400408F
:100D480000480040034B5B68C3F30313024AD35CBB
:100D5800D840704700100240A40F0008034B5B689E
:100D6800C3F30223024AD35CD84070470010024004
:100D7800B40F0008034B5B68C3F3C223024AD35C79
:100D8800D840704700100240B40F00080E4B5B6853
:100D980003F48033ABB90D4B0B4AD06A00F00F0057
:100DA8000130B3FBF0F0536803F470134FF4701282
:100DB80092FAA2F2B2FA82F2D340023303FB00F0B5
:100DC8007047034BE8E700BF0010024000093D00F0
:100DD80000127A0008B5054B5B6803F00C03082B7A
:100DE80001D0034808BDFFF7D1FFFBE70010024020
:100DF80000127A0010B50446FFF7ECFF2060FFF7F9
:100E0800A1FF6060FFF7AAFFA0606068FFF7B2FF6C
:100E1800E06010BD30BB08B5134A126B0321814056
:100E28000A4042EA0062022A14D0032A0BD0012A9F
:100E380006D0FFF7CFFFFFF785FFFFF78FFF01E031
:100E4800FFF7C8FF08BD084A126812F0020FF9D070
:100E58000648F7E7044A126A12F0020FF2D04FF47C
:100E68000040EFE7002070470010024000127A00AF
:100E78001549D1F8883043F47003C1F88830134B12
:100E88001A6842F001021A605868114A02405A6012
:100E98001A6822F0847222F480321A601A6822F4E6
:100EA80080221A605A6822F4FE025A60DA6A22F036
:100EB8000F02DA62186B074A02401A6300229A602E
:100EC8004FF000638B60704700ED00E000100240B7
:100ED8000CC07FF8CCFC00FFDFF834D0002103E021
:100EE8000C4B5B58435004310B480C4B42189A4248
:100EF800F6D30B4A02E0002342F8043B094B9A421E
:100F0800F9D3FFF7B5FF00F011F8FFF715FBFEE77F
:100F180000300020C40F0008000000200800002056
:100F2800080000203C000020FEE7000070B50D4DD1
:100F38000D4C641BA4100026A64209D10B4D0C4C85
:100F480000F020F8641BA4100026A64205D170BD4D
:100F580055F8043B98470136EEE755F8043B9847A7
:100F68000136F2E7BC0F0008BC0F0008BC0F0008F0
:100F7800C00F000802440346934200D1704703F8AB
:100F8800011BF9E7F8B500BFF8BC08BC9E467047DE
:0C0F9800F8B500BFF8BC08BC9E467047CE
:100FA4000000000000000000010203040607080915
:080FB40000000000010203042B
:040FBC00F101000837
:040FC000C90100085B
:080FC4000100000000127A0098
:0400000508000EE100
:00000001FF
